{
  "contractName": "BallotVote",
  "abi": [
    {
      "anonymous": false,
      "inputs": [
        {
          "indexed": true,
          "internalType": "address",
          "name": "previousOwner",
          "type": "address"
        },
        {
          "indexed": true,
          "internalType": "address",
          "name": "newOwner",
          "type": "address"
        }
      ],
      "name": "OwnershipTransferred",
      "type": "event"
    },
    {
      "inputs": [
        {
          "internalType": "address",
          "name": "",
          "type": "address"
        }
      ],
      "name": "AutorizedVotersAddress",
      "outputs": [
        {
          "internalType": "int256",
          "name": "id",
          "type": "int256"
        },
        {
          "internalType": "string",
          "name": "name",
          "type": "string"
        },
        {
          "internalType": "uint256",
          "name": "cin",
          "type": "uint256"
        },
        {
          "internalType": "uint8",
          "name": "age",
          "type": "uint8"
        },
        {
          "internalType": "string",
          "name": "region",
          "type": "string"
        },
        {
          "internalType": "enum BallotVote.Genre",
          "name": "genre",
          "type": "uint8"
        },
        {
          "internalType": "bool",
          "name": "bac",
          "type": "bool"
        },
        {
          "internalType": "bool",
          "name": "voted",
          "type": "bool"
        },
        {
          "internalType": "uint256",
          "name": "weight",
          "type": "uint256"
        }
      ],
      "stateMutability": "view",
      "type": "function",
      "constant": true
    },
    {
      "inputs": [
        {
          "internalType": "uint256",
          "name": "",
          "type": "uint256"
        }
      ],
      "name": "Candidates",
      "outputs": [
        {
          "internalType": "uint256",
          "name": "id",
          "type": "uint256"
        },
        {
          "internalType": "string",
          "name": "name",
          "type": "string"
        },
        {
          "internalType": "uint256",
          "name": "voteCount",
          "type": "uint256"
        }
      ],
      "stateMutability": "view",
      "type": "function",
      "constant": true
    },
    {
      "inputs": [],
      "name": "ChairPerson",
      "outputs": [
        {
          "internalType": "address",
          "name": "",
          "type": "address"
        }
      ],
      "stateMutability": "view",
      "type": "function",
      "constant": true
    },
    {
      "inputs": [
        {
          "internalType": "uint256",
          "name": "",
          "type": "uint256"
        }
      ],
      "name": "VoteCards",
      "outputs": [
        {
          "components": [
            {
              "internalType": "int256",
              "name": "id",
              "type": "int256"
            },
            {
              "internalType": "string",
              "name": "name",
              "type": "string"
            },
            {
              "internalType": "uint256",
              "name": "cin",
              "type": "uint256"
            },
            {
              "internalType": "uint8",
              "name": "age",
              "type": "uint8"
            },
            {
              "internalType": "string",
              "name": "region",
              "type": "string"
            },
            {
              "internalType": "enum BallotVote.Genre",
              "name": "genre",
              "type": "uint8"
            },
            {
              "internalType": "bool",
              "name": "bac",
              "type": "bool"
            },
            {
              "internalType": "bool",
              "name": "voted",
              "type": "bool"
            },
            {
              "internalType": "uint256",
              "name": "weight",
              "type": "uint256"
            }
          ],
          "internalType": "struct BallotVote.Voter",
          "name": "votant",
          "type": "tuple"
        },
        {
          "components": [
            {
              "internalType": "uint256",
              "name": "id",
              "type": "uint256"
            },
            {
              "internalType": "string",
              "name": "name",
              "type": "string"
            },
            {
              "internalType": "uint256",
              "name": "voteCount",
              "type": "uint256"
            }
          ],
          "internalType": "struct BallotVote.Candidate",
          "name": "candidate",
          "type": "tuple"
        },
        {
          "internalType": "uint256",
          "name": "DateVote",
          "type": "uint256"
        },
        {
          "internalType": "string",
          "name": "codeElection",
          "type": "string"
        }
      ],
      "stateMutability": "view",
      "type": "function",
      "constant": true
    },
    {
      "inputs": [],
      "name": "owner",
      "outputs": [
        {
          "internalType": "address",
          "name": "",
          "type": "address"
        }
      ],
      "stateMutability": "view",
      "type": "function",
      "constant": true
    },
    {
      "inputs": [
        {
          "internalType": "address",
          "name": "newOwner",
          "type": "address"
        }
      ],
      "name": "transferOwnership",
      "outputs": [],
      "stateMutability": "nonpayable",
      "type": "function"
    },
    {
      "inputs": [
        {
          "internalType": "address",
          "name": "voter",
          "type": "address"
        }
      ],
      "name": "giveRightTovote",
      "outputs": [],
      "stateMutability": "view",
      "type": "function",
      "constant": true
    },
    {
      "inputs": [
        {
          "components": [
            {
              "internalType": "uint256",
              "name": "id",
              "type": "uint256"
            },
            {
              "internalType": "string",
              "name": "name",
              "type": "string"
            },
            {
              "internalType": "uint256",
              "name": "voteCount",
              "type": "uint256"
            }
          ],
          "internalType": "struct BallotVote.Candidate",
          "name": "candidate",
          "type": "tuple"
        }
      ],
      "name": "addCandidate",
      "outputs": [],
      "stateMutability": "nonpayable",
      "type": "function"
    },
    {
      "inputs": [
        {
          "internalType": "address",
          "name": "voterAddress",
          "type": "address"
        }
      ],
      "name": "addVoter",
      "outputs": [],
      "stateMutability": "view",
      "type": "function",
      "constant": true
    },
    {
      "inputs": [
        {
          "internalType": "uint256",
          "name": "idCandidate",
          "type": "uint256"
        }
      ],
      "name": "addCardvote",
      "outputs": [],
      "stateMutability": "nonpayable",
      "type": "function"
    },
    {
      "inputs": [],
      "name": "getWinningCandidate",
      "outputs": [
        {
          "internalType": "uint256",
          "name": "winningCandidate_",
          "type": "uint256"
        }
      ],
      "stateMutability": "view",
      "type": "function",
      "constant": true
    },
    {
      "inputs": [],
      "name": "getWinningName",
      "outputs": [
        {
          "internalType": "string",
          "name": "winningName_",
          "type": "string"
        }
      ],
      "stateMutability": "view",
      "type": "function",
      "constant": true
    },
    {
      "inputs": [
        {
          "internalType": "address",
          "name": "_oracleAddress",
          "type": "address"
        }
      ],
      "name": "setOracleAddress",
      "outputs": [
        {
          "internalType": "bool",
          "name": "",
          "type": "bool"
        }
      ],
      "stateMutability": "nonpayable",
      "type": "function"
    },
    {
      "inputs": [],
      "name": "getOracleAddress",
      "outputs": [
        {
          "internalType": "address",
          "name": "",
          "type": "address"
        }
      ],
      "stateMutability": "view",
      "type": "function",
      "constant": true
    }
  ],
  "bytecode": "0x608060405273481df3b592385239a6e88ed5a5e2ae3cb5562f4d600460006101000a81548173ffffffffffffffffffffffffffffffffffffffff021916908373ffffffffffffffffffffffffffffffffffffffff160217905550600460009054906101000a900473ffffffffffffffffffffffffffffffffffffffff16600560006101000a81548173ffffffffffffffffffffffffffffffffffffffff021916908373ffffffffffffffffffffffffffffffffffffffff1602179055503480156100c857600080fd5b50336000806101000a81548173ffffffffffffffffffffffffffffffffffffffff021916908373ffffffffffffffffffffffffffffffffffffffff160217905550611a0a806101186000396000f3fe608060405234801561001057600080fd5b50600436106100ea5760003560e01c80638da5cb5b1161008c578063ece5983111610066578063ece598311461026c578063f2fde38b14610288578063f4ab9adf146102a4578063f927cc29146102c0576100ea565b80638da5cb5b146102145780639c39895414610232578063b18b78dd1461024e576100ea565b80633177aefc116100c85780633177aefc1461015d5780634c69c00f14610179578063597667c2146101a95780637fb8878a146101dc576100ea565b80630ca4645d146100ef5780632346b7911461010d578063290e92121461012b575b600080fd5b6100f76102de565b604051610104919061165c565b60405180910390f35b61011561038a565b604051610122919061158b565b60405180910390f35b61014560048036038101906101409190611306565b6103b0565b604051610154939291906116f3565b60405180910390f35b61017760048036038101906101729190611306565b610472565b005b610193600480360381019061018e9190611232565b610500565b6040516101a091906115a6565b60405180910390f35b6101c360048036038101906101be9190611306565b6106a6565b6040516101d3949392919061167e565b60405180910390f35b6101f660048036038101906101f19190611232565b610a45565b60405161020b999897969594939291906115c1565b60405180910390f35b61021c610bd7565b604051610229919061158b565b60405180910390f35b61024c600480360381019061024791906112c5565b610bfb565b005b610256610cb7565b604051610263919061158b565b60405180910390f35b61028660048036038101906102819190611232565b610ce1565b005b6102a2600480360381019061029d9190611232565b610d6f565b005b6102be60048036038101906102b99190611232565b610ebe565b005b6102c8610f4c565b6040516102d591906116d8565b60405180910390f35b6060600560009054906101000a900473ffffffffffffffffffffffffffffffffffffffff1673ffffffffffffffffffffffffffffffffffffffff16630ca4645d6040518163ffffffff1660e01b815260040160006040518083038186803b15801561034857600080fd5b505afa15801561035c573d6000803e3d6000fd5b505050506040513d6000823e3d601f19601f820116820180604052508101906103859190611284565b905090565b600160009054906101000a900473ffffffffffffffffffffffffffffffffffffffff1681565b600281815481106103c057600080fd5b90600052602060002090600302016000915090508060000154908060010180546103e99061187a565b80601f01602080910402602001604051908101604052809291908181526020018280546104159061187a565b80156104625780601f1061043757610100808354040283529160200191610462565b820191906000526020600020905b81548152906001019060200180831161044557829003601f168201915b5050505050908060020154905083565b600560009054906101000a900473ffffffffffffffffffffffffffffffffffffffff1673ffffffffffffffffffffffffffffffffffffffff16633177aefc826040518263ffffffff1660e01b81526004016104cd91906116d8565b60006040518083038186803b1580156104e557600080fd5b505afa1580156104f9573d6000803e3d6000fd5b5050505050565b60008060009054906101000a900473ffffffffffffffffffffffffffffffffffffffff1673ffffffffffffffffffffffffffffffffffffffff163373ffffffffffffffffffffffffffffffffffffffff161461055b57600080fd5b81600460006101000a81548173ffffffffffffffffffffffffffffffffffffffff021916908373ffffffffffffffffffffffffffffffffffffffff160217905550600460009054906101000a900473ffffffffffffffffffffffffffffffffffffffff16600560006101000a81548173ffffffffffffffffffffffffffffffffffffffff021916908373ffffffffffffffffffffffffffffffffffffffff160217905550600560009054906101000a900473ffffffffffffffffffffffffffffffffffffffff1673ffffffffffffffffffffffffffffffffffffffff16633412a15c6040518163ffffffff1660e01b815260040160206040518083038186803b15801561066757600080fd5b505afa15801561067b573d6000803e3d6000fd5b505050506040513d601f19601f8201168201806040525081019061069f919061125b565b9050919050565b600381815481106106b657600080fd5b90600052602060002090600c02016000915090508060000160405180610120016040529081600082015481526020016001820180546106f49061187a565b80601f01602080910402602001604051908101604052809291908181526020018280546107209061187a565b801561076d5780601f106107425761010080835404028352916020019161076d565b820191906000526020600020905b81548152906001019060200180831161075057829003601f168201915b50505050508152602001600282015481526020016003820160009054906101000a900460ff1660ff1660ff1681526020016004820180546107ad9061187a565b80601f01602080910402602001604051908101604052809291908181526020018280546107d99061187a565b80156108265780601f106107fb57610100808354040283529160200191610826565b820191906000526020600020905b81548152906001019060200180831161080957829003601f168201915b505050505081526020016005820160009054906101000a900460ff16600181111561087a577f4e487b7100000000000000000000000000000000000000000000000000000000600052602160045260246000fd5b60018111156108b2577f4e487b7100000000000000000000000000000000000000000000000000000000600052602160045260246000fd5b81526020016005820160019054906101000a900460ff161515151581526020016005820160029054906101000a900460ff161515151581526020016006820154815250509080600701604051806060016040529081600082015481526020016001820180546109209061187a565b80601f016020809104026020016040519081016040528092919081815260200182805461094c9061187a565b80156109995780601f1061096e57610100808354040283529160200191610999565b820191906000526020600020905b81548152906001019060200180831161097c57829003601f168201915b505050505081526020016002820154815250509080600a01549080600b0180546109c29061187a565b80601f01602080910402602001604051908101604052809291908181526020018280546109ee9061187a565b8015610a3b5780601f10610a1057610100808354040283529160200191610a3b565b820191906000526020600020905b815481529060010190602001808311610a1e57829003601f168201915b5050505050905084565b6007602052806000526040600020600091509050806000015490806001018054610a6e9061187a565b80601f0160208091040260200160405190810160405280929190818152602001828054610a9a9061187a565b8015610ae75780601f10610abc57610100808354040283529160200191610ae7565b820191906000526020600020905b815481529060010190602001808311610aca57829003601f168201915b5050505050908060020154908060030160009054906101000a900460ff1690806004018054610b159061187a565b80601f0160208091040260200160405190810160405280929190818152602001828054610b419061187a565b8015610b8e5780601f10610b6357610100808354040283529160200191610b8e565b820191906000526020600020905b815481529060010190602001808311610b7157829003601f168201915b5050505050908060050160009054906101000a900460ff16908060050160019054906101000a900460ff16908060050160029054906101000a900460ff16908060060154905089565b60008054906101000a900473ffffffffffffffffffffffffffffffffffffffff1681565b600160009054906101000a900473ffffffffffffffffffffffffffffffffffffffff1673ffffffffffffffffffffffffffffffffffffffff163373ffffffffffffffffffffffffffffffffffffffff1614610c5557600080fd5b6002819080600181540180825580915050600190039060005260206000209060030201600090919091909150600082015181600001556020820151816001019080519060200190610ca7929190610ff3565b5060408201518160020155505050565b6000600460009054906101000a900473ffffffffffffffffffffffffffffffffffffffff16905090565b600560009054906101000a900473ffffffffffffffffffffffffffffffffffffffff1673ffffffffffffffffffffffffffffffffffffffff1663ece59831826040518263ffffffff1660e01b8152600401610d3c919061158b565b60006040518083038186803b158015610d5457600080fd5b505afa158015610d68573d6000803e3d6000fd5b5050505050565b60008054906101000a900473ffffffffffffffffffffffffffffffffffffffff1673ffffffffffffffffffffffffffffffffffffffff163373ffffffffffffffffffffffffffffffffffffffff1614610dc757600080fd5b600073ffffffffffffffffffffffffffffffffffffffff168173ffffffffffffffffffffffffffffffffffffffff161415610e0157600080fd5b8073ffffffffffffffffffffffffffffffffffffffff1660008054906101000a900473ffffffffffffffffffffffffffffffffffffffff1673ffffffffffffffffffffffffffffffffffffffff167f8be0079c531659141344cd1fd0a4f28419497f9722a3daafe3b4186f6b6457e060405160405180910390a3806000806101000a81548173ffffffffffffffffffffffffffffffffffffffff021916908373ffffffffffffffffffffffffffffffffffffffff16021790555050565b600560009054906101000a900473ffffffffffffffffffffffffffffffffffffffff1673ffffffffffffffffffffffffffffffffffffffff1663f4ab9adf826040518263ffffffff1660e01b8152600401610f19919061158b565b60006040518083038186803b158015610f3157600080fd5b505afa158015610f45573d6000803e3d6000fd5b5050505050565b6000600560009054906101000a900473ffffffffffffffffffffffffffffffffffffffff1673ffffffffffffffffffffffffffffffffffffffff1663f927cc296040518163ffffffff1660e01b815260040160206040518083038186803b158015610fb657600080fd5b505afa158015610fca573d6000803e3d6000fd5b505050506040513d601f19601f82011682018060405250810190610fee919061132f565b905090565b828054610fff9061187a565b90600052602060002090601f0160209004810192826110215760008555611068565b82601f1061103a57805160ff1916838001178555611068565b82800160010185558215611068579182015b8281111561106757825182559160200191906001019061104c565b5b5090506110759190611079565b5090565b5b8082111561109257600081600090555060010161107a565b5090565b60006110a96110a484611756565b611731565b9050828152602081018484840111156110c157600080fd5b6110cc848285611838565b509392505050565b60006110e76110e284611756565b611731565b9050828152602081018484840111156110ff57600080fd5b61110a848285611847565b509392505050565b6000813590506111218161198f565b92915050565b600081519050611136816119a6565b92915050565b600082601f83011261114d57600080fd5b813561115d848260208601611096565b91505092915050565b600082601f83011261117757600080fd5b81516111878482602086016110d4565b91505092915050565b6000606082840312156111a257600080fd5b6111ac6060611731565b905060006111bc84828501611208565b600083015250602082013567ffffffffffffffff8111156111dc57600080fd5b6111e88482850161113c565b60208301525060406111fc84828501611208565b60408301525092915050565b600081359050611217816119bd565b92915050565b60008151905061122c816119bd565b92915050565b60006020828403121561124457600080fd5b600061125284828501611112565b91505092915050565b60006020828403121561126d57600080fd5b600061127b84828501611127565b91505092915050565b60006020828403121561129657600080fd5b600082015167ffffffffffffffff8111156112b057600080fd5b6112bc84828501611166565b91505092915050565b6000602082840312156112d757600080fd5b600082013567ffffffffffffffff8111156112f157600080fd5b6112fd84828501611190565b91505092915050565b60006020828403121561131857600080fd5b600061132684828501611208565b91505092915050565b60006020828403121561134157600080fd5b600061134f8482850161121d565b91505092915050565b611361816117b4565b82525050565b611370816117c6565b82525050565b61137f816117c6565b82525050565b61138e81611826565b82525050565b61139d81611826565b82525050565b6113ac816117e5565b82525050565b6113bb816117e5565b82525050565b60006113cc82611787565b6113d68185611792565b93506113e6818560208601611847565b6113ef8161196a565b840191505092915050565b600061140582611787565b61140f81856117a3565b935061141f818560208601611847565b6114288161196a565b840191505092915050565b600060608301600083015161144b600086018261154f565b506020830151848203602086015261146382826113c1565b9150506040830151611478604086018261154f565b508091505092915050565b60006101208301600083015161149c60008601826113a3565b50602083015184820360208601526114b482826113c1565b91505060408301516114c9604086018261154f565b5060608301516114dc606086018261156d565b50608083015184820360808601526114f482826113c1565b91505060a083015161150960a0860182611385565b5060c083015161151c60c0860182611367565b5060e083015161152f60e0860182611367565b5061010083015161154461010086018261154f565b508091505092915050565b6115588161180f565b82525050565b6115678161180f565b82525050565b61157681611819565b82525050565b61158581611819565b82525050565b60006020820190506115a06000830184611358565b92915050565b60006020820190506115bb6000830184611376565b92915050565b6000610120820190506115d7600083018c6113b2565b81810360208301526115e9818b6113fa565b90506115f8604083018a61155e565b611605606083018961157c565b818103608083015261161781886113fa565b905061162660a0830187611394565b61163360c0830186611376565b61164060e0830185611376565b61164e61010083018461155e565b9a9950505050505050505050565b6000602082019050818103600083015261167681846113fa565b905092915050565b600060808201905081810360008301526116988187611483565b905081810360208301526116ac8186611433565b90506116bb604083018561155e565b81810360608301526116cd81846113fa565b905095945050505050565b60006020820190506116ed600083018461155e565b92915050565b6000606082019050611708600083018661155e565b818103602083015261171a81856113fa565b9050611729604083018461155e565b949350505050565b600061173b61174c565b905061174782826118ac565b919050565b6000604051905090565b600067ffffffffffffffff8211156117715761177061193b565b5b61177a8261196a565b9050602081019050919050565b600081519050919050565b600082825260208201905092915050565b600082825260208201905092915050565b60006117bf826117ef565b9050919050565b60008115159050919050565b60008190506117e08261197b565b919050565b6000819050919050565b600073ffffffffffffffffffffffffffffffffffffffff82169050919050565b6000819050919050565b600060ff82169050919050565b6000611831826117d2565b9050919050565b82818337600083830152505050565b60005b8381101561186557808201518184015260208101905061184a565b83811115611874576000848401525b50505050565b6000600282049050600182168061189257607f821691505b602082108114156118a6576118a561190c565b5b50919050565b6118b58261196a565b810181811067ffffffffffffffff821117156118d4576118d361193b565b5b80604052505050565b7f4e487b7100000000000000000000000000000000000000000000000000000000600052602160045260246000fd5b7f4e487b7100000000000000000000000000000000000000000000000000000000600052602260045260246000fd5b7f4e487b7100000000000000000000000000000000000000000000000000000000600052604160045260246000fd5b6000601f19601f8301169050919050565b6002811061198c5761198b6118dd565b5b50565b611998816117b4565b81146119a357600080fd5b50565b6119af816117c6565b81146119ba57600080fd5b50565b6119c68161180f565b81146119d157600080fd5b5056fea2646970667358221220c3726bdf31b281ee3538c4a8988cb7816796388aa0a4ad3bb2ff6750dbc3dad164736f6c63430008040033",
  "immutableReferences": {},
  "source": "// SPDX-License-Identifier: MIT\r\npragma solidity ^0.8.4;\r\n\r\nimport \"./OracleInterface.sol\";\r\nimport \"./Ownable.sol\";\r\n\r\n/// @title BallotVote\r\n/// @author Ichrak Ben Hsinne and Ganem Chedli\r\n/// @notice Make Ballot to vote on a candidate\r\ncontract BallotVote is Ownable {\r\n    //variables\r\n    address public ChairPerson;\r\n    Candidate[] public Candidates;\r\n    VoteCard[] public VoteCards;\r\n    //Ballot results oracle\r\n    address internal BallotVoteOracleAddr =\r\n        0x481df3B592385239A6E88ed5A5e2aE3cB5562F4D;\r\n    OracleInterface internal BallotVoteOracle =\r\n        OracleInterface(BallotVoteOracleAddr);\r\n\r\n    //mappings\r\n    mapping(address => Voter) private voterRegister;\r\n    mapping(address => Voter) public AutorizedVotersAddress;\r\n    //structs\r\n    struct Voter {\r\n        int id;\r\n        string name;\r\n        uint256 cin;\r\n        uint8 age;\r\n        string region;\r\n        Genre genre; // enum\r\n        bool bac;\r\n        bool voted;\r\n        uint weight;\r\n    }\r\n\r\n    struct Candidate {\r\n        uint id;\r\n        string name;\r\n        uint voteCount;\r\n    }\r\n\r\n    struct VoteCard {\r\n        Voter votant;\r\n        Candidate candidate;\r\n        uint256 DateVote;\r\n        string codeElection;\r\n    }\r\n\r\n    enum Genre {\r\n        Homme,\r\n        Femme\r\n    }\r\n\r\n    ///@notice give the right to vote to an address\r\n    ///@param voter the address of the voter\r\n    function giveRightTovote(address voter) public view {\r\n        BallotVoteOracle.giveRightTovote(voter);\r\n    }\r\n\r\n    ///@notice add candidate to the array of candidates\r\n    ///@param candidate the candidate to add\r\n    function addCandidate(Candidate memory candidate) public  {\r\n        require(msg.sender == ChairPerson);\r\n        Candidates.push(candidate);\r\n    }\r\n\r\n    ///@notice add voter to the array of voters\r\n    ///@param voterAddress the address of the voter\r\n    function addVoter(address voterAddress) public view {\r\n        BallotVoteOracle.addVoter(voterAddress);\r\n    }\r\n\r\n    ///@notice vote on an candidate based on his idCandidate\r\n    ///@param idCandidate the id of the candidate\r\n    function addCardvote(uint idCandidate) public {\r\n        BallotVoteOracle.addCardvote(idCandidate);\r\n    }\r\n\r\n    /// @notice gets the winningCandidate_ of the ballot oracle\r\n    /// @param winningCandidate_ the address of the ballot oracle\r\n    /// @return winningCandidate_ the winning candidate of the ballot oracle\r\n    function getWinningCandidate()\r\n        public\r\n        view\r\n        returns (uint winningCandidate_)\r\n    {\r\n        winningCandidate_ = BallotVoteOracle.getWinningCandidate();\r\n    }\r\n\r\n    ///@notice gets the winningName_ of the ballot oracle\r\n    ///@param winningName_ the address of the ballot oracle\r\n    ///@return winningName_ the winning name of the ballot oracle\r\n    function getWinningName() public view returns (string memory winningName_) {\r\n        winningName_ = BallotVoteOracle.getWinningName();\r\n    }\r\n\r\n    /// @notice sets the address of the ballot oracle contract to use\r\n    /// @dev setting a wrong address may result in false return value, or error\r\n    /// @param _oracleAddress the address of the ballot oracle\r\n    /// @return true if connection to the new oracle address was successful\r\n    function setOracleAddress(\r\n        address _oracleAddress\r\n    ) external onlyOwner returns (bool) {\r\n        BallotVoteOracleAddr = _oracleAddress;\r\n        BallotVoteOracle = OracleInterface(BallotVoteOracleAddr);\r\n        return BallotVoteOracle.testConnection();\r\n    }\r\n\r\n    /// @notice gets the address of the ballot oracle being used\r\n    /// @return the address of the currently set oracle\r\n    function getOracleAddress() external view returns (address) {\r\n        return BallotVoteOracleAddr;\r\n    }\r\n}\r\n",
  "sourcePath": "C:\\Users\\USER\\BallotBlockchain\\client\\contracts\\BallotVote.sol",
  "compiler": {
    "name": "solc",
    "version": "0.8.4+commit.c7e474f2.Emscripten.clang"
  },
  "schemaVersion": "3.4.13",
  "updatedAt": "2023-04-30T00:32:19.098Z",
  "networkType": "ethereum",
  "devdoc": {
    "author": "Ichrak Ben Hsinne and Ganem Chedli",
    "kind": "dev",
    "methods": {
      "addCandidate((uint256,string,uint256))": {
        "params": {
          "candidate": "the candidate to add"
        }
      },
      "addCardvote(uint256)": {
        "params": {
          "idCandidate": "the id of the candidate"
        }
      },
      "addVoter(address)": {
        "params": {
          "voterAddress": "the address of the voter"
        }
      },
      "getOracleAddress()": {
        "returns": {
          "_0": "the address of the currently set oracle"
        }
      },
      "getWinningCandidate()": {
        "params": {
          "winningCandidate_": "the address of the ballot oracle"
        },
        "returns": {
          "winningCandidate_": "the winning candidate of the ballot oracle"
        }
      },
      "getWinningName()": {
        "params": {
          "winningName_": "the address of the ballot oracle"
        },
        "returns": {
          "winningName_": "the winning name of the ballot oracle"
        }
      },
      "giveRightTovote(address)": {
        "params": {
          "voter": "the address of the voter"
        }
      },
      "setOracleAddress(address)": {
        "details": "setting a wrong address may result in false return value, or error",
        "params": {
          "_oracleAddress": "the address of the ballot oracle"
        },
        "returns": {
          "_0": "true if connection to the new oracle address was successful"
        }
      },
      "transferOwnership(address)": {
        "details": "Allows the current owner to transfer control of the contract to a newOwner.",
        "params": {
          "newOwner": "The address to transfer ownership to."
        }
      }
    },
    "title": "BallotVote",
    "version": 1
  },
  "userdoc": {
    "kind": "user",
    "methods": {
      "addCandidate((uint256,string,uint256))": {
        "notice": "add candidate to the array of candidates"
      },
      "addCardvote(uint256)": {
        "notice": "vote on an candidate based on his idCandidate"
      },
      "addVoter(address)": {
        "notice": "add voter to the array of voters"
      },
      "getOracleAddress()": {
        "notice": "gets the address of the ballot oracle being used"
      },
      "getWinningCandidate()": {
        "notice": "gets the winningCandidate_ of the ballot oracle"
      },
      "getWinningName()": {
        "notice": "gets the winningName_ of the ballot oracle"
      },
      "giveRightTovote(address)": {
        "notice": "give the right to vote to an address"
      },
      "setOracleAddress(address)": {
        "notice": "sets the address of the ballot oracle contract to use"
      }
    },
    "notice": "Make Ballot to vote on a candidate",
    "version": 1
  }
}