{
  "contractName": "BallotVote",
  "abi": [
    {
      "anonymous": false,
      "inputs": [
        {
          "indexed": true,
          "internalType": "address",
          "name": "previousOwner",
          "type": "address"
        },
        {
          "indexed": true,
          "internalType": "address",
          "name": "newOwner",
          "type": "address"
        }
      ],
      "name": "OwnershipTransferred",
      "type": "event"
    },
    {
      "inputs": [
        {
          "internalType": "address",
          "name": "",
          "type": "address"
        }
      ],
      "name": "AutorizedVotersAddress",
      "outputs": [
        {
          "internalType": "int256",
          "name": "id",
          "type": "int256"
        },
        {
          "internalType": "string",
          "name": "name",
          "type": "string"
        },
        {
          "internalType": "string",
          "name": "lastName",
          "type": "string"
        },
        {
          "internalType": "uint256",
          "name": "cin",
          "type": "uint256"
        },
        {
          "internalType": "uint8",
          "name": "age",
          "type": "uint8"
        },
        {
          "internalType": "string",
          "name": "region",
          "type": "string"
        },
        {
          "internalType": "enum BallotVote.Genre",
          "name": "genre",
          "type": "uint8"
        },
        {
          "internalType": "bool",
          "name": "bac",
          "type": "bool"
        },
        {
          "internalType": "bool",
          "name": "voted",
          "type": "bool"
        },
        {
          "internalType": "uint256",
          "name": "weight",
          "type": "uint256"
        }
      ],
      "stateMutability": "view",
      "type": "function"
    },
    {
      "inputs": [
        {
          "internalType": "uint256",
          "name": "",
          "type": "uint256"
        }
      ],
      "name": "Candidates",
      "outputs": [
        {
          "internalType": "uint256",
          "name": "id",
          "type": "uint256"
        },
        {
          "internalType": "string",
          "name": "name",
          "type": "string"
        },
        {
          "internalType": "uint256",
          "name": "voteCount",
          "type": "uint256"
        }
      ],
      "stateMutability": "view",
      "type": "function"
    },
    {
      "inputs": [],
      "name": "ChairPerson",
      "outputs": [
        {
          "internalType": "address",
          "name": "",
          "type": "address"
        }
      ],
      "stateMutability": "view",
      "type": "function"
    },
    {
      "inputs": [
        {
          "internalType": "uint256",
          "name": "",
          "type": "uint256"
        }
      ],
      "name": "VoteCards",
      "outputs": [
        {
          "components": [
            {
              "internalType": "int256",
              "name": "id",
              "type": "int256"
            },
            {
              "internalType": "string",
              "name": "name",
              "type": "string"
            },
            {
              "internalType": "string",
              "name": "lastName",
              "type": "string"
            },
            {
              "internalType": "uint256",
              "name": "cin",
              "type": "uint256"
            },
            {
              "internalType": "uint8",
              "name": "age",
              "type": "uint8"
            },
            {
              "internalType": "string",
              "name": "region",
              "type": "string"
            },
            {
              "internalType": "enum BallotVote.Genre",
              "name": "genre",
              "type": "uint8"
            },
            {
              "internalType": "bool",
              "name": "bac",
              "type": "bool"
            },
            {
              "internalType": "bool",
              "name": "voted",
              "type": "bool"
            },
            {
              "internalType": "uint256",
              "name": "weight",
              "type": "uint256"
            }
          ],
          "internalType": "struct BallotVote.Voter",
          "name": "votant",
          "type": "tuple"
        },
        {
          "components": [
            {
              "internalType": "uint256",
              "name": "id",
              "type": "uint256"
            },
            {
              "internalType": "string",
              "name": "name",
              "type": "string"
            },
            {
              "internalType": "uint256",
              "name": "voteCount",
              "type": "uint256"
            }
          ],
          "internalType": "struct BallotVote.Candidate",
          "name": "candidate",
          "type": "tuple"
        },
        {
          "internalType": "uint256",
          "name": "DateVote",
          "type": "uint256"
        },
        {
          "internalType": "string",
          "name": "codeElection",
          "type": "string"
        }
      ],
      "stateMutability": "view",
      "type": "function"
    },
    {
      "inputs": [],
      "name": "owner",
      "outputs": [
        {
          "internalType": "address",
          "name": "",
          "type": "address"
        }
      ],
      "stateMutability": "view",
      "type": "function"
    },
    {
      "inputs": [
        {
          "internalType": "address",
          "name": "newOwner",
          "type": "address"
        }
      ],
      "name": "transferOwnership",
      "outputs": [],
      "stateMutability": "nonpayable",
      "type": "function"
    },
    {
      "inputs": [
        {
          "internalType": "address",
          "name": "voter",
          "type": "address"
        }
      ],
      "name": "giveRightToVote",
      "outputs": [],
      "stateMutability": "view",
      "type": "function"
    },
    {
      "inputs": [
        {
          "components": [
            {
              "internalType": "uint256",
              "name": "id",
              "type": "uint256"
            },
            {
              "internalType": "string",
              "name": "name",
              "type": "string"
            },
            {
              "internalType": "uint256",
              "name": "voteCount",
              "type": "uint256"
            }
          ],
          "internalType": "struct BallotVote.Candidate",
          "name": "candidate",
          "type": "tuple"
        }
      ],
      "name": "addCandidate",
      "outputs": [],
      "stateMutability": "nonpayable",
      "type": "function"
    },
    {
      "inputs": [
        {
          "internalType": "address",
          "name": "voterAddress",
          "type": "address"
        }
      ],
      "name": "addVoter",
      "outputs": [],
      "stateMutability": "view",
      "type": "function"
    },
    {
      "inputs": [
        {
          "internalType": "uint256",
          "name": "idCandidate",
          "type": "uint256"
        }
      ],
      "name": "addCardVote",
      "outputs": [],
      "stateMutability": "nonpayable",
      "type": "function"
    },
    {
      "inputs": [],
      "name": "getWinningCandidate",
      "outputs": [
        {
          "internalType": "uint256",
          "name": "winningCandidate_",
          "type": "uint256"
        }
      ],
      "stateMutability": "view",
      "type": "function"
    },
    {
      "inputs": [],
      "name": "getWinningName",
      "outputs": [
        {
          "internalType": "string",
          "name": "winningName_",
          "type": "string"
        }
      ],
      "stateMutability": "view",
      "type": "function"
    },
    {
      "inputs": [
        {
          "internalType": "address",
          "name": "_oracleAddress",
          "type": "address"
        }
      ],
      "name": "setOracleAddress",
      "outputs": [
        {
          "internalType": "bool",
          "name": "",
          "type": "bool"
        }
      ],
      "stateMutability": "nonpayable",
      "type": "function"
    },
    {
      "inputs": [],
      "name": "getOracleAddress",
      "outputs": [
        {
          "internalType": "address",
          "name": "",
          "type": "address"
        }
      ],
      "stateMutability": "view",
      "type": "function"
    }
  ],
  "bytecode": "0x608060405273481df3b592385239a6e88ed5a5e2ae3cb5562f4d600460006101000a81548173ffffffffffffffffffffffffffffffffffffffff021916908373ffffffffffffffffffffffffffffffffffffffff160217905550600460009054906101000a900473ffffffffffffffffffffffffffffffffffffffff16600560006101000a81548173ffffffffffffffffffffffffffffffffffffffff021916908373ffffffffffffffffffffffffffffffffffffffff1602179055503480156100c857600080fd5b50336000806101000a81548173ffffffffffffffffffffffffffffffffffffffff021916908373ffffffffffffffffffffffffffffffffffffffff160217905550611b5d806101186000396000f3fe608060405234801561001057600080fd5b50600436106100ea5760003560e01c80638da5cb5b1161008c578063b18b78dd11610066578063b18b78dd1461026b578063f2fde38b14610289578063f4ab9adf146102a5578063f927cc29146102c1576100ea565b80638da5cb5b146102155780639c398954146102335780639e7b8d611461024f576100ea565b80634c69c00f116100c85780634c69c00f1461015d578063597667c21461018d57806377e42baa146101c05780637fb8878a146101dc576100ea565b80630ca4645d146100ef5780632346b7911461010d578063290e92121461012b575b600080fd5b6100f76102df565b60405161010491906117af565b60405180910390f35b61011561038b565b60405161012291906116c8565b60405180910390f35b61014560048036038101906101409190611427565b6103b1565b60405161015493929190611846565b60405180910390f35b61017760048036038101906101729190611353565b610473565b60405161018491906116e3565b60405180910390f35b6101a760048036038101906101a29190611427565b610619565b6040516101b794939291906117d1565b60405180910390f35b6101da60048036038101906101d59190611427565b610a4a565b005b6101f660048036038101906101f19190611353565b610ad8565b60405161020c9a999897969594939291906116fe565b60405180910390f35b61021d610cf8565b60405161022a91906116c8565b60405180910390f35b61024d600480360381019061024891906113e6565b610d1c565b005b61026960048036038101906102649190611353565b610dd8565b005b610273610e66565b60405161028091906116c8565b60405180910390f35b6102a3600480360381019061029e9190611353565b610e90565b005b6102bf60048036038101906102ba9190611353565b610fdf565b005b6102c961106d565b6040516102d6919061182b565b60405180910390f35b6060600560009054906101000a900473ffffffffffffffffffffffffffffffffffffffff1673ffffffffffffffffffffffffffffffffffffffff16630ca4645d6040518163ffffffff1660e01b815260040160006040518083038186803b15801561034957600080fd5b505afa15801561035d573d6000803e3d6000fd5b505050506040513d6000823e3d601f19601f8201168201806040525081019061038691906113a5565b905090565b600160009054906101000a900473ffffffffffffffffffffffffffffffffffffffff1681565b600281815481106103c157600080fd5b90600052602060002090600302016000915090508060000154908060010180546103ea906119cd565b80601f0160208091040260200160405190810160405280929190818152602001828054610416906119cd565b80156104635780601f1061043857610100808354040283529160200191610463565b820191906000526020600020905b81548152906001019060200180831161044657829003601f168201915b5050505050908060020154905083565b60008060009054906101000a900473ffffffffffffffffffffffffffffffffffffffff1673ffffffffffffffffffffffffffffffffffffffff163373ffffffffffffffffffffffffffffffffffffffff16146104ce57600080fd5b81600460006101000a81548173ffffffffffffffffffffffffffffffffffffffff021916908373ffffffffffffffffffffffffffffffffffffffff160217905550600460009054906101000a900473ffffffffffffffffffffffffffffffffffffffff16600560006101000a81548173ffffffffffffffffffffffffffffffffffffffff021916908373ffffffffffffffffffffffffffffffffffffffff160217905550600560009054906101000a900473ffffffffffffffffffffffffffffffffffffffff1673ffffffffffffffffffffffffffffffffffffffff16633412a15c6040518163ffffffff1660e01b815260040160206040518083038186803b1580156105da57600080fd5b505afa1580156105ee573d6000803e3d6000fd5b505050506040513d601f19601f82011682018060405250810190610612919061137c565b9050919050565b6003818154811061062957600080fd5b90600052602060002090600d0201600091509050806000016040518061014001604052908160008201548152602001600182018054610667906119cd565b80601f0160208091040260200160405190810160405280929190818152602001828054610693906119cd565b80156106e05780601f106106b5576101008083540402835291602001916106e0565b820191906000526020600020905b8154815290600101906020018083116106c357829003601f168201915b505050505081526020016002820180546106f9906119cd565b80601f0160208091040260200160405190810160405280929190818152602001828054610725906119cd565b80156107725780601f1061074757610100808354040283529160200191610772565b820191906000526020600020905b81548152906001019060200180831161075557829003601f168201915b50505050508152602001600382015481526020016004820160009054906101000a900460ff1660ff1660ff1681526020016005820180546107b2906119cd565b80601f01602080910402602001604051908101604052809291908181526020018280546107de906119cd565b801561082b5780601f106108005761010080835404028352916020019161082b565b820191906000526020600020905b81548152906001019060200180831161080e57829003601f168201915b505050505081526020016006820160009054906101000a900460ff16600181111561087f577f4e487b7100000000000000000000000000000000000000000000000000000000600052602160045260246000fd5b60018111156108b7577f4e487b7100000000000000000000000000000000000000000000000000000000600052602160045260246000fd5b81526020016006820160019054906101000a900460ff161515151581526020016006820160029054906101000a900460ff16151515158152602001600782015481525050908060080160405180606001604052908160008201548152602001600182018054610925906119cd565b80601f0160208091040260200160405190810160405280929190818152602001828054610951906119cd565b801561099e5780601f106109735761010080835404028352916020019161099e565b820191906000526020600020905b81548152906001019060200180831161098157829003601f168201915b505050505081526020016002820154815250509080600b01549080600c0180546109c7906119cd565b80601f01602080910402602001604051908101604052809291908181526020018280546109f3906119cd565b8015610a405780601f10610a1557610100808354040283529160200191610a40565b820191906000526020600020905b815481529060010190602001808311610a2357829003601f168201915b5050505050905084565b600560009054906101000a900473ffffffffffffffffffffffffffffffffffffffff1673ffffffffffffffffffffffffffffffffffffffff16633177aefc826040518263ffffffff1660e01b8152600401610aa5919061182b565b60006040518083038186803b158015610abd57600080fd5b505afa158015610ad1573d6000803e3d6000fd5b5050505050565b6007602052806000526040600020600091509050806000015490806001018054610b01906119cd565b80601f0160208091040260200160405190810160405280929190818152602001828054610b2d906119cd565b8015610b7a5780601f10610b4f57610100808354040283529160200191610b7a565b820191906000526020600020905b815481529060010190602001808311610b5d57829003601f168201915b505050505090806002018054610b8f906119cd565b80601f0160208091040260200160405190810160405280929190818152602001828054610bbb906119cd565b8015610c085780601f10610bdd57610100808354040283529160200191610c08565b820191906000526020600020905b815481529060010190602001808311610beb57829003601f168201915b5050505050908060030154908060040160009054906101000a900460ff1690806005018054610c36906119cd565b80601f0160208091040260200160405190810160405280929190818152602001828054610c62906119cd565b8015610caf5780601f10610c8457610100808354040283529160200191610caf565b820191906000526020600020905b815481529060010190602001808311610c9257829003601f168201915b5050505050908060060160009054906101000a900460ff16908060060160019054906101000a900460ff16908060060160029054906101000a900460ff1690806007015490508a565b60008054906101000a900473ffffffffffffffffffffffffffffffffffffffff1681565b600160009054906101000a900473ffffffffffffffffffffffffffffffffffffffff1673ffffffffffffffffffffffffffffffffffffffff163373ffffffffffffffffffffffffffffffffffffffff1614610d7657600080fd5b6002819080600181540180825580915050600190039060005260206000209060030201600090919091909150600082015181600001556020820151816001019080519060200190610dc8929190611114565b5060408201518160020155505050565b600560009054906101000a900473ffffffffffffffffffffffffffffffffffffffff1673ffffffffffffffffffffffffffffffffffffffff1663ece59831826040518263ffffffff1660e01b8152600401610e3391906116c8565b60006040518083038186803b158015610e4b57600080fd5b505afa158015610e5f573d6000803e3d6000fd5b5050505050565b6000600460009054906101000a900473ffffffffffffffffffffffffffffffffffffffff16905090565b60008054906101000a900473ffffffffffffffffffffffffffffffffffffffff1673ffffffffffffffffffffffffffffffffffffffff163373ffffffffffffffffffffffffffffffffffffffff1614610ee857600080fd5b600073ffffffffffffffffffffffffffffffffffffffff168173ffffffffffffffffffffffffffffffffffffffff161415610f2257600080fd5b8073ffffffffffffffffffffffffffffffffffffffff1660008054906101000a900473ffffffffffffffffffffffffffffffffffffffff1673ffffffffffffffffffffffffffffffffffffffff167f8be0079c531659141344cd1fd0a4f28419497f9722a3daafe3b4186f6b6457e060405160405180910390a3806000806101000a81548173ffffffffffffffffffffffffffffffffffffffff021916908373ffffffffffffffffffffffffffffffffffffffff16021790555050565b600560009054906101000a900473ffffffffffffffffffffffffffffffffffffffff1673ffffffffffffffffffffffffffffffffffffffff1663f4ab9adf826040518263ffffffff1660e01b815260040161103a91906116c8565b60006040518083038186803b15801561105257600080fd5b505afa158015611066573d6000803e3d6000fd5b5050505050565b6000600560009054906101000a900473ffffffffffffffffffffffffffffffffffffffff1673ffffffffffffffffffffffffffffffffffffffff1663f927cc296040518163ffffffff1660e01b815260040160206040518083038186803b1580156110d757600080fd5b505afa1580156110eb573d6000803e3d6000fd5b505050506040513d601f19601f8201168201806040525081019061110f9190611450565b905090565b828054611120906119cd565b90600052602060002090601f0160209004810192826111425760008555611189565b82601f1061115b57805160ff1916838001178555611189565b82800160010185558215611189579182015b8281111561118857825182559160200191906001019061116d565b5b509050611196919061119a565b5090565b5b808211156111b357600081600090555060010161119b565b5090565b60006111ca6111c5846118a9565b611884565b9050828152602081018484840111156111e257600080fd5b6111ed84828561198b565b509392505050565b6000611208611203846118a9565b611884565b90508281526020810184848401111561122057600080fd5b61122b84828561199a565b509392505050565b60008135905061124281611ae2565b92915050565b60008151905061125781611af9565b92915050565b600082601f83011261126e57600080fd5b813561127e8482602086016111b7565b91505092915050565b600082601f83011261129857600080fd5b81516112a88482602086016111f5565b91505092915050565b6000606082840312156112c357600080fd5b6112cd6060611884565b905060006112dd84828501611329565b600083015250602082013567ffffffffffffffff8111156112fd57600080fd5b6113098482850161125d565b602083015250604061131d84828501611329565b60408301525092915050565b60008135905061133881611b10565b92915050565b60008151905061134d81611b10565b92915050565b60006020828403121561136557600080fd5b600061137384828501611233565b91505092915050565b60006020828403121561138e57600080fd5b600061139c84828501611248565b91505092915050565b6000602082840312156113b757600080fd5b600082015167ffffffffffffffff8111156113d157600080fd5b6113dd84828501611287565b91505092915050565b6000602082840312156113f857600080fd5b600082013567ffffffffffffffff81111561141257600080fd5b61141e848285016112b1565b91505092915050565b60006020828403121561143957600080fd5b600061144784828501611329565b91505092915050565b60006020828403121561146257600080fd5b60006114708482850161133e565b91505092915050565b61148281611907565b82525050565b61149181611919565b82525050565b6114a081611919565b82525050565b6114af81611979565b82525050565b6114be81611979565b82525050565b6114cd81611938565b82525050565b6114dc81611938565b82525050565b60006114ed826118da565b6114f781856118e5565b935061150781856020860161199a565b61151081611abd565b840191505092915050565b6000611526826118da565b61153081856118f6565b935061154081856020860161199a565b61154981611abd565b840191505092915050565b600060608301600083015161156c600086018261168c565b506020830151848203602086015261158482826114e2565b9150506040830151611599604086018261168c565b508091505092915050565b6000610140830160008301516115bd60008601826114c4565b50602083015184820360208601526115d582826114e2565b915050604083015184820360408601526115ef82826114e2565b9150506060830151611604606086018261168c565b50608083015161161760808601826116aa565b5060a083015184820360a086015261162f82826114e2565b91505060c083015161164460c08601826114a6565b5060e083015161165760e0860182611488565b5061010083015161166c610100860182611488565b5061012083015161168161012086018261168c565b508091505092915050565b61169581611962565b82525050565b6116a481611962565b82525050565b6116b38161196c565b82525050565b6116c28161196c565b82525050565b60006020820190506116dd6000830184611479565b92915050565b60006020820190506116f86000830184611497565b92915050565b600061014082019050611714600083018d6114d3565b8181036020830152611726818c61151b565b9050818103604083015261173a818b61151b565b9050611749606083018a61169b565b61175660808301896116b9565b81810360a0830152611768818861151b565b905061177760c08301876114b5565b61178460e0830186611497565b611792610100830185611497565b6117a061012083018461169b565b9b9a5050505050505050505050565b600060208201905081810360008301526117c9818461151b565b905092915050565b600060808201905081810360008301526117eb81876115a4565b905081810360208301526117ff8186611554565b905061180e604083018561169b565b8181036060830152611820818461151b565b905095945050505050565b6000602082019050611840600083018461169b565b92915050565b600060608201905061185b600083018661169b565b818103602083015261186d818561151b565b905061187c604083018461169b565b949350505050565b600061188e61189f565b905061189a82826119ff565b919050565b6000604051905090565b600067ffffffffffffffff8211156118c4576118c3611a8e565b5b6118cd82611abd565b9050602081019050919050565b600081519050919050565b600082825260208201905092915050565b600082825260208201905092915050565b600061191282611942565b9050919050565b60008115159050919050565b600081905061193382611ace565b919050565b6000819050919050565b600073ffffffffffffffffffffffffffffffffffffffff82169050919050565b6000819050919050565b600060ff82169050919050565b600061198482611925565b9050919050565b82818337600083830152505050565b60005b838110156119b857808201518184015260208101905061199d565b838111156119c7576000848401525b50505050565b600060028204905060018216806119e557607f821691505b602082108114156119f9576119f8611a5f565b5b50919050565b611a0882611abd565b810181811067ffffffffffffffff82111715611a2757611a26611a8e565b5b80604052505050565b7f4e487b7100000000000000000000000000000000000000000000000000000000600052602160045260246000fd5b7f4e487b7100000000000000000000000000000000000000000000000000000000600052602260045260246000fd5b7f4e487b7100000000000000000000000000000000000000000000000000000000600052604160045260246000fd5b6000601f19601f8301169050919050565b60028110611adf57611ade611a30565b5b50565b611aeb81611907565b8114611af657600080fd5b50565b611b0281611919565b8114611b0d57600080fd5b50565b611b1981611962565b8114611b2457600080fd5b5056fea26469706673582212207cc420a84a6a2e29481f43b7c739a206183dc493b34b8865df246ab745d9be0764736f6c63430008040033",
  "immutableReferences": {},
  "source": "// SPDX-License-Identifier: MIT\r\npragma solidity ^0.8.4;\r\n\r\nimport \"./OracleInterface.sol\";\r\nimport \"./Ownable.sol\";\r\n\r\n/// @title BallotVote\r\n/// @author Ichrak Ben Hsinne and Ganem Chedli\r\n/// @notice Make Ballot to vote on a candidate\r\ncontract BallotVote is Ownable {\r\n    //variables\r\n    address public ChairPerson;\r\n    Candidate[] public Candidates;\r\n    VoteCard[] public VoteCards;\r\n    //Ballot results oracle\r\n    address internal BallotVoteOracleAddr =\r\n        0x481df3B592385239A6E88ed5A5e2aE3cB5562F4D;\r\n    OracleInterface internal BallotVoteOracle =\r\n        OracleInterface(BallotVoteOracleAddr);\r\n\r\n    //mappings\r\n    mapping(address => Voter) private voterRegister;\r\n    mapping(address => Voter) public AutorizedVotersAddress;\r\n    //structs\r\n    struct Voter {\r\n        int id;\r\n        string name;\r\n        string lastName;\r\n        uint256 cin;\r\n        uint8 age;\r\n        string region;\r\n        Genre genre; // enum\r\n        bool bac;\r\n        bool voted;\r\n        uint weight;\r\n    }\r\n\r\n    struct Candidate {\r\n        uint id;\r\n        string name;\r\n        uint voteCount;\r\n    }\r\n\r\n    struct VoteCard {\r\n        Voter votant;\r\n        Candidate candidate;\r\n        uint256 DateVote;\r\n        string codeElection;\r\n    }\r\n\r\n    enum Genre {\r\n        Homme,\r\n        Femme\r\n    }\r\n\r\n    ///@notice give the right to vote to an address\r\n    ///@param voter the address of the voter\r\n    function giveRightToVote(address voter) public view {\r\n        BallotVoteOracle.giveRightTovote(voter);\r\n    }\r\n\r\n    ///@notice add candidate to the array of candidates\r\n    ///@param candidate the candidate to add\r\n    function addCandidate(Candidate memory candidate) public {\r\n        require(msg.sender == ChairPerson);\r\n        Candidates.push(candidate);\r\n    }\r\n\r\n    ///@notice add voter to the array of voters\r\n    ///@param voterAddress the address of the voter\r\n    function addVoter(address voterAddress) public view {\r\n        BallotVoteOracle.addVoter(voterAddress);\r\n    }\r\n\r\n    ///@notice vote on an candidate based on his idCandidate\r\n    ///@param idCandidate the id of the candidate\r\n    function addCardVote(uint idCandidate) public {\r\n        BallotVoteOracle.addCardvote(idCandidate);\r\n    }\r\n\r\n    /// @notice gets the winningCandidate_ of the ballot oracle\r\n    /// @param winningCandidate_ the address of the ballot oracle\r\n    /// @return winningCandidate_ the winning candidate of the ballot oracle\r\n    function getWinningCandidate()\r\n        public\r\n        view\r\n        returns (uint winningCandidate_)\r\n    {\r\n        winningCandidate_ = BallotVoteOracle.getWinningCandidate();\r\n    }\r\n\r\n    ///@notice gets the winningName_ of the ballot oracle\r\n    ///@param winningName_ the address of the ballot oracle\r\n    ///@return winningName_ the winning name of the ballot oracle\r\n    function getWinningName() public view returns (string memory winningName_) {\r\n        winningName_ = BallotVoteOracle.getWinningName();\r\n    }\r\n\r\n    /// @notice sets the address of the ballot oracle contract to use\r\n    /// @dev setting a wrong address may result in false return value, or error\r\n    /// @param _oracleAddress the address of the ballot oracle\r\n    /// @return true if connection to the new oracle address was successful\r\n    function setOracleAddress(\r\n        address _oracleAddress\r\n    ) external onlyOwner returns (bool) {\r\n        BallotVoteOracleAddr = _oracleAddress;\r\n        BallotVoteOracle = OracleInterface(BallotVoteOracleAddr);\r\n        return BallotVoteOracle.testConnection();\r\n    }\r\n\r\n    /// @notice gets the address of the ballot oracle being used\r\n    /// @return the address of the currently set oracle\r\n    function getOracleAddress() external view returns (address) {\r\n        return BallotVoteOracleAddr;\r\n    }\r\n}\r\n",
  "sourcePath": "C:\\Users\\USER\\Votili-back-end\\BallotBlockchain\\client\\contracts\\BallotVote.sol",
  "compiler": {
    "name": "solc",
    "version": "0.8.4+commit.c7e474f2.Emscripten.clang"
  },
  "schemaVersion": "3.4.13",
  "updatedAt": "2023-04-30T02:26:59.368Z",
  "devdoc": {
    "author": "Ichrak Ben Hsinne and Ganem Chedli",
    "kind": "dev",
    "methods": {
      "addCandidate((uint256,string,uint256))": {
        "params": {
          "candidate": "the candidate to add"
        }
      },
      "addCardVote(uint256)": {
        "params": {
          "idCandidate": "the id of the candidate"
        }
      },
      "addVoter(address)": {
        "params": {
          "voterAddress": "the address of the voter"
        }
      },
      "getOracleAddress()": {
        "returns": {
          "_0": "the address of the currently set oracle"
        }
      },
      "getWinningCandidate()": {
        "params": {
          "winningCandidate_": "the address of the ballot oracle"
        },
        "returns": {
          "winningCandidate_": "the winning candidate of the ballot oracle"
        }
      },
      "getWinningName()": {
        "params": {
          "winningName_": "the address of the ballot oracle"
        },
        "returns": {
          "winningName_": "the winning name of the ballot oracle"
        }
      },
      "giveRightToVote(address)": {
        "params": {
          "voter": "the address of the voter"
        }
      },
      "setOracleAddress(address)": {
        "details": "setting a wrong address may result in false return value, or error",
        "params": {
          "_oracleAddress": "the address of the ballot oracle"
        },
        "returns": {
          "_0": "true if connection to the new oracle address was successful"
        }
      },
      "transferOwnership(address)": {
        "details": "Allows the current owner to transfer control of the contract to a newOwner.",
        "params": {
          "newOwner": "The address to transfer ownership to."
        }
      }
    },
    "title": "BallotVote",
    "version": 1
  },
  "userdoc": {
    "kind": "user",
    "methods": {
      "addCandidate((uint256,string,uint256))": {
        "notice": "add candidate to the array of candidates"
      },
      "addCardVote(uint256)": {
        "notice": "vote on an candidate based on his idCandidate"
      },
      "addVoter(address)": {
        "notice": "add voter to the array of voters"
      },
      "getOracleAddress()": {
        "notice": "gets the address of the ballot oracle being used"
      },
      "getWinningCandidate()": {
        "notice": "gets the winningCandidate_ of the ballot oracle"
      },
      "getWinningName()": {
        "notice": "gets the winningName_ of the ballot oracle"
      },
      "giveRightToVote(address)": {
        "notice": "give the right to vote to an address"
      },
      "setOracleAddress(address)": {
        "notice": "sets the address of the ballot oracle contract to use"
      }
    },
    "notice": "Make Ballot to vote on a candidate",
    "version": 1
  }
}