{
  "contractName": "BallotVoteOracle",
  "abi": [
    {
      "anonymous": false,
      "inputs": [
        {
          "indexed": true,
          "internalType": "address",
          "name": "previousOwner",
          "type": "address"
        },
        {
          "indexed": true,
          "internalType": "address",
          "name": "newOwner",
          "type": "address"
        }
      ],
      "name": "OwnershipTransferred",
      "type": "event"
    },
    {
      "inputs": [
        {
          "internalType": "address",
          "name": "",
          "type": "address"
        }
      ],
      "name": "AutorizedVotersAddress",
      "outputs": [
        {
          "internalType": "int256",
          "name": "id",
          "type": "int256"
        },
        {
          "internalType": "string",
          "name": "name",
          "type": "string"
        },
        {
          "internalType": "uint256",
          "name": "cin",
          "type": "uint256"
        },
        {
          "internalType": "uint8",
          "name": "age",
          "type": "uint8"
        },
        {
          "internalType": "string",
          "name": "region",
          "type": "string"
        },
        {
          "internalType": "enum BallotVoteOracle.Genre",
          "name": "genre",
          "type": "uint8"
        },
        {
          "internalType": "bool",
          "name": "bac",
          "type": "bool"
        },
        {
          "internalType": "bool",
          "name": "voted",
          "type": "bool"
        },
        {
          "internalType": "uint256",
          "name": "weight",
          "type": "uint256"
        }
      ],
      "stateMutability": "view",
      "type": "function",
      "constant": true
    },
    {
      "inputs": [
        {
          "internalType": "uint256",
          "name": "",
          "type": "uint256"
        }
      ],
      "name": "Candidates",
      "outputs": [
        {
          "internalType": "uint256",
          "name": "id",
          "type": "uint256"
        },
        {
          "internalType": "string",
          "name": "name",
          "type": "string"
        },
        {
          "internalType": "uint256",
          "name": "voteCount",
          "type": "uint256"
        }
      ],
      "stateMutability": "view",
      "type": "function",
      "constant": true
    },
    {
      "inputs": [],
      "name": "ChairPerson",
      "outputs": [
        {
          "internalType": "address",
          "name": "",
          "type": "address"
        }
      ],
      "stateMutability": "view",
      "type": "function",
      "constant": true
    },
    {
      "inputs": [
        {
          "internalType": "uint256",
          "name": "",
          "type": "uint256"
        }
      ],
      "name": "VoteCards",
      "outputs": [
        {
          "components": [
            {
              "internalType": "int256",
              "name": "id",
              "type": "int256"
            },
            {
              "internalType": "string",
              "name": "name",
              "type": "string"
            },
            {
              "internalType": "uint256",
              "name": "cin",
              "type": "uint256"
            },
            {
              "internalType": "uint8",
              "name": "age",
              "type": "uint8"
            },
            {
              "internalType": "string",
              "name": "region",
              "type": "string"
            },
            {
              "internalType": "enum BallotVoteOracle.Genre",
              "name": "genre",
              "type": "uint8"
            },
            {
              "internalType": "bool",
              "name": "bac",
              "type": "bool"
            },
            {
              "internalType": "bool",
              "name": "voted",
              "type": "bool"
            },
            {
              "internalType": "uint256",
              "name": "weight",
              "type": "uint256"
            }
          ],
          "internalType": "struct BallotVoteOracle.Voter",
          "name": "votant",
          "type": "tuple"
        },
        {
          "components": [
            {
              "internalType": "uint256",
              "name": "id",
              "type": "uint256"
            },
            {
              "internalType": "string",
              "name": "name",
              "type": "string"
            },
            {
              "internalType": "uint256",
              "name": "voteCount",
              "type": "uint256"
            }
          ],
          "internalType": "struct BallotVoteOracle.Candidate",
          "name": "candidate",
          "type": "tuple"
        },
        {
          "internalType": "uint256",
          "name": "DateVote",
          "type": "uint256"
        },
        {
          "internalType": "string",
          "name": "codeElection",
          "type": "string"
        }
      ],
      "stateMutability": "view",
      "type": "function",
      "constant": true
    },
    {
      "inputs": [],
      "name": "owner",
      "outputs": [
        {
          "internalType": "address",
          "name": "",
          "type": "address"
        }
      ],
      "stateMutability": "view",
      "type": "function",
      "constant": true
    },
    {
      "inputs": [
        {
          "internalType": "address",
          "name": "newOwner",
          "type": "address"
        }
      ],
      "name": "transferOwnership",
      "outputs": [],
      "stateMutability": "nonpayable",
      "type": "function"
    },
    {
      "inputs": [
        {
          "internalType": "address",
          "name": "voter",
          "type": "address"
        }
      ],
      "name": "giveRightTovote",
      "outputs": [],
      "stateMutability": "view",
      "type": "function",
      "constant": true
    },
    {
      "inputs": [
        {
          "internalType": "address",
          "name": "voterAddress",
          "type": "address"
        }
      ],
      "name": "addVoter",
      "outputs": [],
      "stateMutability": "view",
      "type": "function",
      "constant": true
    },
    {
      "inputs": [
        {
          "internalType": "uint256",
          "name": "idCandidate",
          "type": "uint256"
        }
      ],
      "name": "addCardvote",
      "outputs": [],
      "stateMutability": "nonpayable",
      "type": "function"
    },
    {
      "inputs": [],
      "name": "getWinningCandidate",
      "outputs": [
        {
          "internalType": "uint256",
          "name": "winningCandidate_",
          "type": "uint256"
        }
      ],
      "stateMutability": "view",
      "type": "function",
      "constant": true
    },
    {
      "inputs": [],
      "name": "getWinningName",
      "outputs": [
        {
          "internalType": "string",
          "name": "winningName_",
          "type": "string"
        }
      ],
      "stateMutability": "view",
      "type": "function",
      "constant": true
    }
  ],
  "bytecode": "0x608060405234801561001057600080fd5b50336000806101000a81548173ffffffffffffffffffffffffffffffffffffffff021916908373ffffffffffffffffffffffffffffffffffffffff160217905550611e72806100606000396000f3fe608060405234801561001057600080fd5b50600436106100a95760003560e01c80637fb8878a116100715780637fb8878a1461016b5780638da5cb5b146101a3578063ece59831146101c1578063f2fde38b146101dd578063f4ab9adf146101f9578063f927cc2914610215576100a9565b80630ca4645d146100ae5780632346b791146100cc578063290e9212146100ea5780633177aefc1461011c578063597667c214610138575b600080fd5b6100b6610233565b6040516100c39190611988565b60405180910390f35b6100d4610315565b6040516100e191906118d2565b60405180910390f35b61010460048036038101906100ff91906115ea565b61033b565b60405161011393929190611a9f565b60405180910390f35b610136600480360381019061013191906115ea565b6103fd565b005b610152600480360381019061014d91906115ea565b610a42565b6040516101629493929190611a2a565b60405180910390f35b610185600480360381019061018091906115c1565b610de1565b60405161019a999897969594939291906118ed565b60405180910390f35b6101ab610f73565b6040516101b891906118d2565b60405180910390f35b6101db60048036038101906101d691906115c1565b610f97565b005b6101f760048036038101906101f291906115c1565b61114c565b005b610213600480360381019061020e91906115c1565b61129b565b005b61021d61141a565b60405161022a9190611a84565b60405180910390f35b6060600261023f61141a565b81548110610276577f4e487b7100000000000000000000000000000000000000000000000000000000600052603260045260246000fd5b9060005260206000209060030201600101805461029290611c17565b80601f01602080910402602001604051908101604052809291908181526020018280546102be90611c17565b801561030b5780601f106102e05761010080835404028352916020019161030b565b820191906000526020600020905b8154815290600101906020018083116102ee57829003601f168201915b5050505050905090565b600160009054906101000a900473ffffffffffffffffffffffffffffffffffffffff1681565b6002818154811061034b57600080fd5b906000526020600020906003020160009150905080600001549080600101805461037490611c17565b80601f01602080910402602001604051908101604052809291908181526020018280546103a090611c17565b80156103ed5780601f106103c2576101008083540402835291602001916103ed565b820191906000526020600020905b8154815290600101906020018083116103d057829003601f168201915b5050505050908060020154905083565b6000600560003373ffffffffffffffffffffffffffffffffffffffff1673ffffffffffffffffffffffffffffffffffffffff1681526020019081526020016000209050600081600601541415610488576040517f08c379a000000000000000000000000000000000000000000000000000000000815260040161047f906119aa565b60405180910390fd5b8060050160029054906101000a900460ff16156104da576040517f08c379a00000000000000000000000000000000000000000000000000000000081526004016104d1906119ca565b60405180910390fd5b60018160050160026101000a81548160ff021916908315150217905550600060028381548110610533577f4e487b7100000000000000000000000000000000000000000000000000000000600052603260045260246000fd5b90600052602060002090600302016040518060600160405290816000820154815260200160018201805461056690611c17565b80601f016020809104026020016040519081016040528092919081815260200182805461059290611c17565b80156105df5780601f106105b4576101008083540402835291602001916105df565b820191906000526020600020905b8154815290600101906020018083116105c257829003601f168201915b5050505050815260200160028201548152505090506001816040018181516106079190611b0a565b915081815250506000604051806080016040528084604051806101200160405290816000820154815260200160018201805461064290611c17565b80601f016020809104026020016040519081016040528092919081815260200182805461066e90611c17565b80156106bb5780601f10610690576101008083540402835291602001916106bb565b820191906000526020600020905b81548152906001019060200180831161069e57829003601f168201915b50505050508152602001600282015481526020016003820160009054906101000a900460ff1660ff1660ff1681526020016004820180546106fb90611c17565b80601f016020809104026020016040519081016040528092919081815260200182805461072790611c17565b80156107745780601f1061074957610100808354040283529160200191610774565b820191906000526020600020905b81548152906001019060200180831161075757829003601f168201915b505050505081526020016005820160009054906101000a900460ff1660018111156107c8577f4e487b7100000000000000000000000000000000000000000000000000000000600052602160045260246000fd5b6001811115610800577f4e487b7100000000000000000000000000000000000000000000000000000000600052602160045260246000fd5b81526020016005820160019054906101000a900460ff161515151581526020016005820160029054906101000a900460ff1615151515815260200160068201548152505081526020018381526020014281526020016040518060400160405280600c81526020017f456c656374696f6e323032310000000000000000000000000000000000000000815250815250905060038190806001815401808255809150506001900390600052602060002090600c02016000909190919091506000820151816000016000820151816000015560208201518160010190805190602001906108eb9291906114f4565b506040820151816002015560608201518160030160006101000a81548160ff021916908360ff16021790555060808201518160040190805190602001906109339291906114f4565b5060a08201518160050160006101000a81548160ff02191690836001811115610985577f4e487b7100000000000000000000000000000000000000000000000000000000600052602160045260246000fd5b021790555060c08201518160050160016101000a81548160ff02191690831515021790555060e08201518160050160026101000a81548160ff02191690831515021790555061010082015181600601555050602082015181600701600082015181600001556020820151816001019080519060200190610a069291906114f4565b50604082015181600201555050604082015181600a0155606082015181600b019080519060200190610a399291906114f4565b50505050505050565b60038181548110610a5257600080fd5b90600052602060002090600c0201600091509050806000016040518061012001604052908160008201548152602001600182018054610a9090611c17565b80601f0160208091040260200160405190810160405280929190818152602001828054610abc90611c17565b8015610b095780601f10610ade57610100808354040283529160200191610b09565b820191906000526020600020905b815481529060010190602001808311610aec57829003601f168201915b50505050508152602001600282015481526020016003820160009054906101000a900460ff1660ff1660ff168152602001600482018054610b4990611c17565b80601f0160208091040260200160405190810160405280929190818152602001828054610b7590611c17565b8015610bc25780601f10610b9757610100808354040283529160200191610bc2565b820191906000526020600020905b815481529060010190602001808311610ba557829003601f168201915b505050505081526020016005820160009054906101000a900460ff166001811115610c16577f4e487b7100000000000000000000000000000000000000000000000000000000600052602160045260246000fd5b6001811115610c4e577f4e487b7100000000000000000000000000000000000000000000000000000000600052602160045260246000fd5b81526020016005820160019054906101000a900460ff161515151581526020016005820160029054906101000a900460ff16151515158152602001600682015481525050908060070160405180606001604052908160008201548152602001600182018054610cbc90611c17565b80601f0160208091040260200160405190810160405280929190818152602001828054610ce890611c17565b8015610d355780601f10610d0a57610100808354040283529160200191610d35565b820191906000526020600020905b815481529060010190602001808311610d1857829003601f168201915b505050505081526020016002820154815250509080600a01549080600b018054610d5e90611c17565b80601f0160208091040260200160405190810160405280929190818152602001828054610d8a90611c17565b8015610dd75780601f10610dac57610100808354040283529160200191610dd7565b820191906000526020600020905b815481529060010190602001808311610dba57829003601f168201915b5050505050905084565b6005602052806000526040600020600091509050806000015490806001018054610e0a90611c17565b80601f0160208091040260200160405190810160405280929190818152602001828054610e3690611c17565b8015610e835780601f10610e5857610100808354040283529160200191610e83565b820191906000526020600020905b815481529060010190602001808311610e6657829003601f168201915b5050505050908060020154908060030160009054906101000a900460ff1690806004018054610eb190611c17565b80601f0160208091040260200160405190810160405280929190818152602001828054610edd90611c17565b8015610f2a5780601f10610eff57610100808354040283529160200191610f2a565b820191906000526020600020905b815481529060010190602001808311610f0d57829003601f168201915b5050505050908060050160009054906101000a900460ff16908060050160019054906101000a900460ff16908060050160029054906101000a900460ff16908060060154905089565b60008054906101000a900473ffffffffffffffffffffffffffffffffffffffff1681565b600160009054906101000a900473ffffffffffffffffffffffffffffffffffffffff1673ffffffffffffffffffffffffffffffffffffffff163373ffffffffffffffffffffffffffffffffffffffff1614611027576040517f08c379a000000000000000000000000000000000000000000000000000000000815260040161101e906119ea565b60405180910390fd5b600560008273ffffffffffffffffffffffffffffffffffffffff1673ffffffffffffffffffffffffffffffffffffffff16815260200190815260200160002060050160029054906101000a900460ff16156110b7576040517f08c379a00000000000000000000000000000000000000000000000000000000081526004016110ae90611a0a565b60405180910390fd5b6000600560008373ffffffffffffffffffffffffffffffffffffffff1673ffffffffffffffffffffffffffffffffffffffff168152602001908152602001600020600601541461110657600080fd5b6001600560008373ffffffffffffffffffffffffffffffffffffffff1673ffffffffffffffffffffffffffffffffffffffff168152602001908152602001600020505050565b60008054906101000a900473ffffffffffffffffffffffffffffffffffffffff1673ffffffffffffffffffffffffffffffffffffffff163373ffffffffffffffffffffffffffffffffffffffff16146111a457600080fd5b600073ffffffffffffffffffffffffffffffffffffffff168173ffffffffffffffffffffffffffffffffffffffff1614156111de57600080fd5b8073ffffffffffffffffffffffffffffffffffffffff1660008054906101000a900473ffffffffffffffffffffffffffffffffffffffff1673ffffffffffffffffffffffffffffffffffffffff167f8be0079c531659141344cd1fd0a4f28419497f9722a3daafe3b4186f6b6457e060405160405180910390a3806000806101000a81548173ffffffffffffffffffffffffffffffffffffffff021916908373ffffffffffffffffffffffffffffffffffffffff16021790555050565b600460008273ffffffffffffffffffffffffffffffffffffffff1673ffffffffffffffffffffffffffffffffffffffff16815260200190815260200160002060050160029054906101000a900460ff161561132b576040517f08c379a000000000000000000000000000000000000000000000000000000000815260040161132290611a0a565b60405180910390fd5b600160009054906101000a900473ffffffffffffffffffffffffffffffffffffffff1673ffffffffffffffffffffffffffffffffffffffff163373ffffffffffffffffffffffffffffffffffffffff161461138557600080fd5b6000600460008373ffffffffffffffffffffffffffffffffffffffff1673ffffffffffffffffffffffffffffffffffffffff16815260200190815260200160002060060154146113d457600080fd5b6001600460008373ffffffffffffffffffffffffffffffffffffffff1673ffffffffffffffffffffffffffffffffffffffff168152602001908152602001600020505050565b6000806000905060005b6003805490508110156114ef57816003828154811061146c577f4e487b7100000000000000000000000000000000000000000000000000000000600052603260045260246000fd5b90600052602060002090600c02016007016002015411156114dc57600381815481106114c1577f4e487b7100000000000000000000000000000000000000000000000000000000600052603260045260246000fd5b90600052602060002090600c02016007016002015491508092505b80806114e790611c49565b915050611424565b505090565b82805461150090611c17565b90600052602060002090601f0160209004810192826115225760008555611569565b82601f1061153b57805160ff1916838001178555611569565b82800160010185558215611569579182015b8281111561156857825182559160200191906001019061154d565b5b509050611576919061157a565b5090565b5b8082111561159357600081600090555060010161157b565b5090565b6000813590506115a681611e0e565b92915050565b6000813590506115bb81611e25565b92915050565b6000602082840312156115d357600080fd5b60006115e184828501611597565b91505092915050565b6000602082840312156115fc57600080fd5b600061160a848285016115ac565b91505092915050565b61161c81611b60565b82525050565b61162b81611b72565b82525050565b61163a81611b72565b82525050565b61164981611bd2565b82525050565b61165881611bd2565b82525050565b61166781611b91565b82525050565b61167681611b91565b82525050565b600061168782611add565b6116918185611ae8565b93506116a1818560208601611be4565b6116aa81611d1f565b840191505092915050565b60006116c082611add565b6116ca8185611af9565b93506116da818560208601611be4565b6116e381611d1f565b840191505092915050565b60006116fb601483611af9565b915061170682611d30565b602082019050919050565b600061171e600d83611af9565b915061172982611d59565b602082019050919050565b6000611741602c83611af9565b915061174c82611d82565b604082019050919050565b6000611764601b83611af9565b915061176f82611dd1565b602082019050919050565b60006060830160008301516117926000860182611896565b50602083015184820360208601526117aa828261167c565b91505060408301516117bf6040860182611896565b508091505092915050565b6000610120830160008301516117e3600086018261165e565b50602083015184820360208601526117fb828261167c565b91505060408301516118106040860182611896565b50606083015161182360608601826118b4565b506080830151848203608086015261183b828261167c565b91505060a083015161185060a0860182611640565b5060c083015161186360c0860182611622565b5060e083015161187660e0860182611622565b5061010083015161188b610100860182611896565b508091505092915050565b61189f81611bbb565b82525050565b6118ae81611bbb565b82525050565b6118bd81611bc5565b82525050565b6118cc81611bc5565b82525050565b60006020820190506118e76000830184611613565b92915050565b600061012082019050611903600083018c61166d565b8181036020830152611915818b6116b5565b9050611924604083018a6118a5565b61193160608301896118c3565b818103608083015261194381886116b5565b905061195260a083018761164f565b61195f60c0830186611631565b61196c60e0830185611631565b61197a6101008301846118a5565b9a9950505050505050505050565b600060208201905081810360008301526119a281846116b5565b905092915050565b600060208201905081810360008301526119c3816116ee565b9050919050565b600060208201905081810360008301526119e381611711565b9050919050565b60006020820190508181036000830152611a0381611734565b9050919050565b60006020820190508181036000830152611a2381611757565b9050919050565b60006080820190508181036000830152611a4481876117ca565b90508181036020830152611a58818661177a565b9050611a6760408301856118a5565b8181036060830152611a7981846116b5565b905095945050505050565b6000602082019050611a9960008301846118a5565b92915050565b6000606082019050611ab460008301866118a5565b8181036020830152611ac681856116b5565b9050611ad560408301846118a5565b949350505050565b600081519050919050565b600082825260208201905092915050565b600082825260208201905092915050565b6000611b1582611bbb565b9150611b2083611bbb565b9250827fffffffffffffffffffffffffffffffffffffffffffffffffffffffffffffffff03821115611b5557611b54611c92565b5b828201905092915050565b6000611b6b82611b9b565b9050919050565b60008115159050919050565b6000819050611b8c82611dfa565b919050565b6000819050919050565b600073ffffffffffffffffffffffffffffffffffffffff82169050919050565b6000819050919050565b600060ff82169050919050565b6000611bdd82611b7e565b9050919050565b60005b83811015611c02578082015181840152602081019050611be7565b83811115611c11576000848401525b50505050565b60006002820490506001821680611c2f57607f821691505b60208210811415611c4357611c42611cf0565b5b50919050565b6000611c5482611bbb565b91507fffffffffffffffffffffffffffffffffffffffffffffffffffffffffffffffff821415611c8757611c86611c92565b5b600182019050919050565b7f4e487b7100000000000000000000000000000000000000000000000000000000600052601160045260246000fd5b7f4e487b7100000000000000000000000000000000000000000000000000000000600052602160045260246000fd5b7f4e487b7100000000000000000000000000000000000000000000000000000000600052602260045260246000fd5b6000601f19601f8301169050919050565b7f486173206e6f20726967687420746f20766f7465000000000000000000000000600082015250565b7f416c726561647920766f74656400000000000000000000000000000000000000600082015250565b7f4f6e6c7920746865206368616972706572736f6e2063616e206769766520616360008201527f6365737320746f20766f74650000000000000000000000000000000000000000602082015250565b7f54686520766f7465722068617320616c726561647920766f7465640000000000600082015250565b60028110611e0b57611e0a611cc1565b5b50565b611e1781611b60565b8114611e2257600080fd5b50565b611e2e81611bbb565b8114611e3957600080fd5b5056fea2646970667358221220e03a1daf44bfebc2d2d309cf528f79a6743d1abe01b75bcbe6b3d76d54a286da64736f6c63430008040033",
  "immutableReferences": {},
  "source": "// SPDX-License-Identifier: MIT\r\npragma solidity ^0.8.4;\r\n\r\nimport \"./Ownable.sol\";\r\n\r\n/// @title BallotVoteOracle\r\n/// @author Ichrak Ben Hsinne and Ganem Chedli\r\n/// @notice Make Ballot to vote on a candidate\r\ncontract BallotVoteOracle is Ownable {\r\n    //variables\r\n    address public ChairPerson;\r\n    Candidate[] public Candidates;\r\n    VoteCard[] public VoteCards;\r\n\r\n    //mappings\r\n    mapping(address => Voter) private voterRegister;\r\n    mapping(address => Voter) public AutorizedVotersAddress;\r\n    //structs\r\n    struct Voter {\r\n        int id;\r\n        string name;\r\n        uint256 cin;\r\n        uint8 age;\r\n        string region;\r\n        Genre genre; // enum\r\n        bool bac;\r\n        bool voted;\r\n        uint weight;\r\n    }\r\n\r\n    struct Candidate {\r\n        uint id;\r\n        string name;\r\n        uint voteCount;\r\n    }\r\n\r\n    struct VoteCard {\r\n        Voter votant;\r\n        Candidate candidate;\r\n        uint256 DateVote;\r\n        string codeElection;\r\n    }\r\n\r\n    enum Genre {\r\n        Homme,\r\n        Femme\r\n    }\r\n\r\n    ///@notice give the right to vote to an address\r\n    ///@param voter the address of the voter\r\n    function giveRightTovote(address voter) public view {\r\n        require(\r\n            msg.sender == ChairPerson,\r\n            \"Only the chairperson can give access to vote\"\r\n        );\r\n        require(\r\n            !AutorizedVotersAddress[voter].voted,\r\n            \"The voter has already voted\"\r\n        );\r\n        require(AutorizedVotersAddress[voter].weight == 0);\r\n\r\n        AutorizedVotersAddress[voter].weight == 1;\r\n    }\r\n\r\n    ///@notice add voter to the array of voters\r\n    ///@param voterAddress the address of the voter\r\n    function addVoter(address voterAddress) public view {\r\n        require(\r\n            !voterRegister[voterAddress].voted,\r\n            \"The voter has already voted\"\r\n        );\r\n        require(msg.sender == ChairPerson);\r\n        require(voterRegister[voterAddress].weight == 0);\r\n\r\n        voterRegister[voterAddress].weight == 1;\r\n    }\r\n\r\n    ///@notice vote on an candidate based on his idCandidate\r\n    ///@param idCandidate the id of the candidate\r\n    function addCardvote(uint idCandidate) public {\r\n        Voter storage sender = AutorizedVotersAddress[msg.sender];\r\n        require(sender.weight != 0, \"Has no right to vote\");\r\n        require(!sender.voted, \"Already voted\");\r\n        sender.voted = true;\r\n        Candidate memory candidate = Candidates[idCandidate];\r\n        candidate.voteCount += 1;\r\n        VoteCard memory card = VoteCard(\r\n            sender,\r\n            candidate,\r\n            block.timestamp,\r\n            \"Election2021\"\r\n        );\r\n        VoteCards.push(card);\r\n    }\r\n\r\n    /// @notice gets the winningCandidate_ of the ballot oracle\r\n    /// @param winningCandidate_ the address of the ballot oracle\r\n    /// @return winningCandidate_ the winning candidate of the ballot oracle\r\n    function getWinningCandidate()\r\n        public\r\n        view\r\n        returns (uint winningCandidate_)\r\n    {\r\n        uint winningVoteCount = 0;\r\n        for (uint i = 0; i < VoteCards.length; i++) {\r\n            if (VoteCards[i].candidate.voteCount > winningVoteCount) {\r\n                winningVoteCount = VoteCards[i].candidate.voteCount;\r\n                winningCandidate_ = i;\r\n            }\r\n        }\r\n    }\r\n\r\n    ///@notice gets the winningName_ of the ballot oracle\r\n    ///@param winningName_ the address of the ballot oracle\r\n    ///@return winningName_ the winning name of the ballot oracle\r\n    function getWinningName() public view returns (string memory winningName_) {\r\n        winningName_ = Candidates[getWinningCandidate()].name;\r\n    }\r\n}\r\n",
  "sourcePath": "C:\\Users\\USER\\BallotBlockchain\\oracle\\contracts\\BallotVoteOracle.sol",
  "compiler": {
    "name": "solc",
    "version": "0.8.4+commit.c7e474f2.Emscripten.clang"
  },
  "schemaVersion": "3.4.13",
  "updatedAt": "2023-04-30T00:30:16.445Z",
  "networkType": "ethereum",
  "devdoc": {
    "author": "Ichrak Ben Hsinne and Ganem Chedli",
    "kind": "dev",
    "methods": {
      "addCardvote(uint256)": {
        "params": {
          "idCandidate": "the id of the candidate"
        }
      },
      "addVoter(address)": {
        "params": {
          "voterAddress": "the address of the voter"
        }
      },
      "getWinningCandidate()": {
        "params": {
          "winningCandidate_": "the address of the ballot oracle"
        },
        "returns": {
          "winningCandidate_": "the winning candidate of the ballot oracle"
        }
      },
      "getWinningName()": {
        "params": {
          "winningName_": "the address of the ballot oracle"
        },
        "returns": {
          "winningName_": "the winning name of the ballot oracle"
        }
      },
      "giveRightTovote(address)": {
        "params": {
          "voter": "the address of the voter"
        }
      },
      "transferOwnership(address)": {
        "details": "Allows the current owner to transfer control of the contract to a newOwner.",
        "params": {
          "newOwner": "The address to transfer ownership to."
        }
      }
    },
    "title": "BallotVoteOracle",
    "version": 1
  },
  "userdoc": {
    "kind": "user",
    "methods": {
      "addCardvote(uint256)": {
        "notice": "vote on an candidate based on his idCandidate"
      },
      "addVoter(address)": {
        "notice": "add voter to the array of voters"
      },
      "getWinningCandidate()": {
        "notice": "gets the winningCandidate_ of the ballot oracle"
      },
      "getWinningName()": {
        "notice": "gets the winningName_ of the ballot oracle"
      },
      "giveRightTovote(address)": {
        "notice": "give the right to vote to an address"
      }
    },
    "notice": "Make Ballot to vote on a candidate",
    "version": 1
  }
}